:020000040800F2
:100000000080012029A1000895910008A391000813
:10001000A9910008AF910008B59100080000000008
:10002000000000000000000000000000BB9100087C
:10003000C991000800000000D7910008E591000870
:1000400079A1000879A1000879A1000879A1000828
:1000500079A1000879A1000879A1000879A1000818
:1000600079A1000879A1000879A1000879A1000808
:10007000F59100080992000879A1000879A100080B
:100080001D9200083192000879A1000879A10008AA
:1000900079A1000879A1000879A1000879A10008D8
:1000A00079A1000879A1000879A1000879A10008C8
:1000B00079A1000879A1000879A1000879A10008B8
:1000C00079A1000879A1000879A1000879A10008A8
:1000D00079A1000879A1000879A1000879A1000898
:1000E00079A1000879A1000879A1000879A1000888
:1000F00079A1000879A1000879A1000879A1000878
:1001000079A1000879A1000879A1000879A1000867
:1001100079A1000879A1000879A1000879A1000857
:1001200079A1000879A1000879A1000879A1000847
:1001300079A1000879A1000879A1000879A1000837
:1001400079A1000879A1000879A10008459200086A
:1001500079A1000879A1000879A1000879A1000817
:1001600079A1000879A1000879A1000879A1000807
:1001700079A1000879A1000879A100080000000019
:0801800079A1000879A1000833
:1001880010B5054C237833B9044B13B10448AFF3C9
:1001980000800123237010BD7801002000000000BA
:1001A800C4A1000808B5034B1BB103490348AFF3CA
:1001B800008008BD000000007C010020C4A10008E8
:1001C80053B94AB9002908BF00281CBF4FF0FF31B6
:1001D8004FF0FF3000F07AB9ADF1080C6DE904CEAC
:1001E80000F006F8DDF804E0DDE9022304B070470A
:1001F8002DE9F0478C460D460446089E002B51D148
:100208008A4217466DD9B2FA82FEBEF1000F0BD0B2
:10021800CEF1200C01FA0EF520FA0CFC02FA0EF7CA
:100228004CEA050C00FA0EF44FEA174A250CBCFB01
:10023800FAF81FFA87F90AFB18CC45EA0C4508FBBF
:1002480009F3AB420AD9ED1908F1FF3280F0238196
:10025800AB4240F22081A8F102083D44ED1AA4B255
:10026800B5FBFAF00AFB105544EA054400FB09F90E
:10027800A14509D9E41900F1FF3380F00A81A145AD
:1002880040F2078102383C44A4EB090440EA0840E4
:100298000021002E61D024FA0EF40023346073602C
:1002A800BDE8F0878B4207D9002E54D0002186E89C
:1002B80021000846BDE8F087B3FA83F1002940F031
:1002C8008E80AB4202D3824200F2FA80841A65EB38
:1002D80003050120AC46002E3FD086E81010BDE88B
:1002E800F08712B90127B7FBF2F7B7FA87FEBEF11C
:1002F800000F34D1EB1B3A0C1FFA87FC0121B3FB2A
:10030800F2F8250C02FB183345EA03450CFB08F309
:10031800AB4207D9ED1908F1FF3002D2AB4200F227
:10032800D1808046ED1AA3B2B5FBF2F002FB10555E
:1003380043EA05440CFB00FCA44507D9E41900F185
:10034800FF3302D2A44500F2B8801846A4EB0C048F
:1003580040EA08409DE731463046BDE8F087CEF1D7
:10036800200405FA0EF307FA0EF720FA04F83A0CFF
:1003780025FA04F448EA0308B4FBF2F14FEA1845F9
:1003880002FB11441FFA87FC45EA044501FB0CF304
:10039800AB4200FA0EF409D9ED1901F1FF3080F0F3
:1003A8008A80AB4240F2878002393D44EB1A1FFA3B
:1003B80088F5B3FBF2F002FB103345EA034500FB76
:1003C8000CF3AB4207D9ED1900F1FF386FD2AB42FD
:1003D8006DD902383D44EB1A40EA01418FE7C1F17B
:1003E800200722FA07F88B4005FA01F448EA0303CC
:1003F80020FA07FE4FEA134CFD404EEA040EB5FB07
:10040800FCF94FEA1E440CFB19551FFA83F844EA1D
:10041800054509FB08F4AC4202FA01F200FA01FAB8
:1004280008D9ED1809F1FF3043D2AC4241D9A9F1FE
:1004380002091D442D1B1FFA8EFEB5FBFCF00CFBB8
:1004480010554EEA054400FB08F8A04507D9E41802
:1004580000F1FF3529D2A04527D902381C4440EACB
:100468000940A4EB0804A0FB02894C45C6464D464A
:1004780015D312D056B1BAEB0E0364EB050404FA97
:1004880007F7CB401F43CC40376074600021BDE8BC
:10049800F0871846F8E69046E0E6C245EAD2B8EB9F
:1004A800020E69EB03050138E4E72846D7E7404622
:1004B80091E78146BEE7014678E702383C4445E7C4
:1004C800084608E7A8F102083D442BE7704700BF3B
:1004D80080B500AF032001F093F9002000F006F882
:1004E80008F006FE0023184680BD000080B582B0E3
:1004F80000AF7860094B1B68094AA2FB03239B09DC
:10050800184601F0B2F9002279684FF0FF3001F087
:1005180082F9002318460837BD4680BD2001002017
:10052800D34D621080B400AF044B1B680133034AFB
:10053800136000BFBD465DF8047B7047B803002018
:1005480080B400AF034B1B681846BD465DF8047BBA
:10055800704700BFB803002080B584B000AF786052
:10056800FFF7EEFFB8607B68FB60FB68B3F1FF3F05
:1005780002D0FB680133FB6000BFFFF7E1FF0246D2
:10058800BB68D21AFB689A42F7D300BF1037BD4642
:1005980080BD80B483B000AF786039607B689B68A9
:1005A80023F47C123B681A437B689A6000BF0C37BF
:1005B800BD465DF8047B704780B483B000AF7860B7
:1005C80039607B689B6823F0E0723B681A437B685C
:1005D8009A6000BF0C37BD465DF8047B704780B455
:1005E80083B000AF78607B689B6803F0E0731846BF
:1005F8000C37BD465DF8047B7047000090B484B0AA
:1006080000AFF860B9607A603B60FB6860331A46F7
:10061800BB689B0013441C462268084B13407A6849
:1006280002F0F8413A680A43134343F00043236059
:1006380000BF1037BD4690BC704700BF00F0FF03F5
:1006480090B482B000AF786039607B6860331A4636
:100658003B689B0013441C46236803F0F843184684
:100668000837BD4690BC704790B484B000AFF860BE
:10067800B9607A60FB6860331A46BB689B00134414
:100688001C46236823F000427B681343236000BFA5
:100698001037BD4690BC704790B486B000AFF86084
:1006A800B9607A60FB6830331946BB6803F440725E
:1006B8004FF440737B617B6993FAA3F33B613B6919
:1006C800B3FA83F322FA03F39B000B441C46226817
:1006D800BB6803F01F031F2101FA03F3DB431A4031
:1006E8007B689B0E03F01F01BB6803F01F0301FA30
:1006F80003F31343236000BF1837BD4690BC70470F
:1007080090B48AB000AFF860B9607A60FB681433BF
:100718001946BB6803F000724FF000737B617B6978
:1007280093FAA3F33B613B69B3FA83F322FA03F329
:100738009B000B441C462268BB6803F0F8714FF01D
:10074800F873FB61FB6993FAA3F3BB61BB69B3FA66
:1007580083F321FA03F3072101FA03F3DB431A4079
:10076800BB6803F0F8714FF0F8737B627B6A93FA09
:10077800A3F33B623B6AB3FA83F321FA03F3796884
:1007880001FA03F31343236000BF2837BD4690BC2A
:100798007047000080B485B000AFF860B9607A6037
:1007A800FB68D3F8B020BB68C3F31203DB431A40DD
:1007B8007B6803F0200308499940BB680B40C3F3EA
:1007C80012031A43FB68C3F8B02000BF1437BD46B4
:1007D8005DF8047B704700BFFFFF070080B483B05B
:1007E80000AF78607B689B6823F0204323F03F03C9
:1007F8007A68936000BF0C37BD465DF8047B70478C
:1008080080B483B000AF78607B689B6803F00053C6
:10081800B3F1005F0CBF01230023DBB218460C378D
:10082800BD465DF8047B704780B483B000AF786044
:100838007B689B6823F0104323F03F0343F080520A
:100848007B689A6000BF0C37BD465DF8047B704733
:1008580080B483B000AF78607B689B6803F08053F6
:10086800B3F1805F0CBF01230023DBB218460C37BD
:10087800BD465DF8047B704780B483B000AF7860F4
:100888007B689B6803F00403042B0CBF012300233F
:10089800DBB218460C37BD465DF8047B7047000094
:1008A80080B586B000AF78600023FB7500233B61FC
:1008B8000023FB607B68002B01D10123A7E17B6843
:1008C8001B69002B7B689B6D002B09D1786808F0A9
:1008D8008FF87B680022DA657B68002283F8542051
:1008E8007B681B681846FFF78BFF0346002B04D074
:1008F8007B681B681846FFF771FF7B681B68184602
:10090800FFF7A6FF0346002B16D17B681B68184625
:10091800FFF78AFF9D4B1B689D4AA2FB0323DA0C55
:1009280013469B0013445B00FB6002E0FB68013B3D
:10093800FB60FB68002BF9D17B681B681846FFF742
:1009480087FF0346002B0DD17B689B6D43F0100297
:100958007B689A657B68DB6D43F001027B68DA652A
:100968000123FB757B689B6D03F01003002B40F09F
:1009780045817B681B681846FFF77EFF0346002BFE
:1009880040F03C817B689B6D23F4817343F0020245
:100998007B689A657B681B689B6803F00303012BDF
:1009A80008D17B681B681B6803F00103012B01D188
:1009B800012300E00023002B7BD17B681B68754A6C
:1009C800934220D1744B9B6803F00303012B05D19C
:1009D800714B1B6803F00103012B0BD06F4B9B6815
:1009E80003F00303012B07D16C4B1B6803F00103D1
:1009F800012B01D1012300E00023002B0CBF0123B0
:100A08000023DBB24DE07B681B68634A934220D128
:100A1800604B9B6803F00303012B05D15D4B1B68FA
:100A280003F00103012B0BD05C4B9B6803F003031D
:100A3800012B07D1594B1B6803F00103012B01D18E
:100A4800012300E0002303F00103DBB2002B20D1D7
:100A580013E0504B9B6803F00303012B07D14D4B68
:100A68001B6803F00103012B01D1012300E00023DF
:100A780003F00103DBB2002B0BD1474B9B6803F05B
:100A88000303012B07D1444B1B6803F00103012B1F
:100A980001D1012300E00023002B0CBF0123002318
:100AA800DBB2002B05D07B685B6819463C48FFF732
:100AB80070FD7B68DB695A037B689B6B1A437B6814
:100AC800DB681A437B689B681A437B685B6A1B0474
:100AD80013433B617B685B6A012B06D17B689B6A89
:100AE800013B5B043A6913433B617B68DB6A002B7B
:100AF80009D07B68DB6A03F470727B681B6B134355
:100B08003A6913433B617B681A687B681B68D9683C
:100B1800244B0B4039690B43D3607B681B689B6887
:100B280003F00C03002B47D17B689B699A037B6811
:100B38005B6B5B0013433B617B681A687B681B68CF
:100B4800DB6823F4804323F0020339690B43D36045
:100B58007B68DB6B012B27D17B681A687B681B6875
:100B68001B6923F4FF6323F004037968086C796830
:100B7800496C08437968896C08437968C96C0143F2
:100B88000B4343F00103136116E000BF200100206E
:100B980083DE1B430000045000010450000204508F
:100BA8000003045007C0F0FF7B681B687A6812686E
:100BB800126922F001021A617B681B69012B0CD1B2
:100BC8007B681B687A681268126B22F00F017A68DA
:100BD800126A013A0A431A6307E07B681B687A685D
:100BE8001268126B22F00F021A637B689B6D23F068
:100BF800030343F001027B689A6507E07B689B6DFD
:100C080043F010027B689A650123FB75FB7D18464B
:100C18001837BD4680BD00BF80B5A4B000AF78606E
:100C28003960002387F88F300023FB607B6893F8D6
:100C38005430012B01D1022330E37B68012283F871
:100C480054207B681B681846FFF716FE0346002BE6
:100C580040F015833B685B68052B23D83B685B68CD
:100C6800023B032B1BD801A252F823F0850C000885
:100C78008D0C0008950C00089D0C00083B680C22A0
:100C88005A600FE03B6812225A600BE03B6818225A
:100C98005A6007E03B684FF480725A6002E03B6894
:100CA80006225A607B6818683B6859683B681B686D
:100CB8001A46FFF7F1FC7B681B689B6803F00C037E
:100CC800002B40F03D817B6818683B6819683B68D9
:100CD8009B681A46FFF714FD3B685A697B681B68D6
:100CE800DB68DB0803F003035B0002FA03F3C7F8D1
:100CF80088303B681B69042B0AD07B6818683B68FE
:100D080019693B681A68D7F88830FFF777FC17E14C
:100D18007B681B6800211846FFF792FC0346C3F363
:100D28001203002B0AD17B681B6800211846FFF7C5
:100D380087FC03469B0E03F01F0213E07B681B68C9
:100D480000211846FFF77CFC0346C7F88430D7F823
:100D5800843093FAA3F3C7F88030D7F88030B3FA19
:100D680083F31A463B681B68C3F31203002B05D1B3
:100D78003B681B689B0E03F01F0309E03B681B6878
:100D8800FB67FB6F93FAA3F3BB67BB6FB3FA83F3FD
:100D98009A4206D17B681B68002200211846FFF79B
:100DA80063FC7B681B6801211846FFF749FC034672
:100DB800C3F31203002B0AD17B681B680121184674
:100DC800FFF73EFC03469B0E03F01F020FE07B6813
:100DD8001B6801211846FFF733FC03467B677B6FCE
:100DE80093FAA3F33B673B6FB3FA83F31A463B6866
:100DF8001B68C3F31203002B05D13B681B689B0ECD
:100E080003F01F0309E03B681B68FB66FB6E93FA5F
:100E1800A3F3BB66BB6EB3FA83F39A4206D17B6831
:100E28001B68002201211846FFF71EFC7B681B681F
:100E380002211846FFF704FC0346C3F31203002BF4
:100E48000AD17B681B6802211846FFF7F9FB0346A5
:100E58009B0E03F01F020FE07B681B6802211846F7
:100E6800FFF7EEFB03467B667B6E93FAA3F33B66C4
:100E78003B6EB3FA83F31A463B681B68C3F312034D
:100E8800002B05D13B681B689B0E03F01F0309E08C
:100E98003B681B68FB65FB6D93FAA3F3BB65BB6DF1
:100EA800B3FA83F39A4206D17B681B6800220221B9
:100EB8001846FFF7D9FB7B681B6803211846FFF724
:100EC800BFFB0346C3F31203002B0AD17B681B68E0
:100ED80003211846FFF7B4FB03469B0E03F01F02DD
:100EE8000FE07B681B6803211846FFF7A9FB034640
:100EF8007B657B6D93FAA3F33B653B6DB3FA83F394
:100F08001A463B681B68C3F31203002B05D13B68E4
:100F18001B689B0E03F01F0309E03B681B68FB641A
:100F2800FB6C93FAA3F3BB64BB6CB3FA83F39A42EA
:100F380006D17B681B68002203211846FFF794FB43
:100F48007B681B689B6803F00303012B08D17B684F
:100F58001B681B6803F00103012B01D1012300E08A
:100F68000023002B40F0F6807B6818683B681968FE
:100F78003B68DB681A46FFF70DFC3B68DB68AC4A48
:100F8800934240F0E7807B6818683B681B68C3F3AE
:100F98001203002B0BD13B681B689B0E03F01F0349
:100FA8000133092B94BF01230023DBB20FE03B6818
:100FB8001B687B647B6C93FAA3F33B643B6CB3FACA
:100FC80083F30133092B94BF01230023DBB2002BE9
:100FD8005BD03B681B68C3F31203002B07D13B6847
:100FE8001B689B0E03F01F0301339A060BE03B6856
:100FF8001B68FB63FB6B93FAA3F3BB63BB6BB3FA8E
:1010080083F301339A063B681B68C3F31203002B72
:1010180009D13B681B689B0E03F01F0301330121B4
:1010280001FA03F30DE03B681B687B637B6B93FA63
:10103800A3F33B633B6BB3FA83F30133012101FA5A
:1010480003F342EA03013B681B68C3F31203002B56
:101058000AD13B681B689B0E03F01F035A1C1346FA
:101068005B0013441B050EE03B681B68FB62FB6AD0
:1010780093FAA3F3BB62BB6AB3FA83F35A1C134611
:101088005B0013441B050B435FE03B681B68C3F31D
:101098001203002B07D13B681B689B0E03F01F034C
:1010A80001339A060BE03B681B687B627B6A93FA04
:1010B800A3F33B623B6AB3FA83F301339A063B68B6
:1010C8001B68C3F31203002B09D13B681B689B0EF6
:1010D80003F01F030133012101FA03F30DE03B681C
:1010E8001B68FB61FB6993FAA3F3BB61BB69B3FAA5
:1010F80083F30133012101FA03F342EA03013B6858
:101108001B68C3F31203002B0CD13B681B689B0EB2
:1011180003F01F0213465B0013441B3B1B0543F0FF
:10112800007311E03B681B687B617B6993FAA3F34A
:101138003B613B69B3FA83F31A4613465B001344D9
:101148001B3B1B0543F000730B433A689268194632
:10115800FFF7D6FA3B681B68364A934207D13648F0
:10116800FFF73DFA034603F40003002B19D03B6850
:101178001B68324A934207D12F48FFF730FA0346DB
:1011880003F08073002B0CD03B681B682C4A9342F9
:101198007ED12948FFF723FA034603F48003002B86
:1011A80076D13B681B68234A934226D17B681B682B
:1011B800244A934204D07B681B68234A934267D130
:1011C8001D48FFF70CFA034643F4000319461A4872
:1011D800FFF7F2F91D4B1B681D4AA2FB0323DA0C2B
:1011E80013461B019B1ADB00FB6002E0FB68013B16
:1011F800FB60FB68002BF9D14AE03B681B680F4A8B
:10120800934227D17B681B680E4A934204D07B68BF
:101218001B680D4A93423BD10748FFF7E0F90346A4
:1012280043F0807319460448FFF7C6F930E000BF61
:1012380000007F40000052C700030450000084CB28
:10124800010000800000045000020450200100202A
:1012580083DE1B433B681B68124A934218D17B68A4
:101268001B68114A934213D11048FFF7B8F9034697
:1012780043F4800319460D48FFF79EF908E07B68A0
:101288009B6D43F020027B689A65012387F88F30B5
:101298007B68002283F8542097F88F3018469037DF
:1012A800BD4680BD010000800000045000030450CA
:1012B80080B483B000AF78607B689B6803F0040358
:1012C800042B0CBF01230023DBB218460C37BD46A4
:1012D8005DF8047B7047000080B59EB000AF786071
:1012E8003960002387F877307B6893F85430012BF6
:1012F80001D10223B5E07B68012283F854207B6882
:101308001B685A4A934202D1594BBB6001E0002343
:10131800BB60BB68002B0BD17B689B6D43F0200240
:101328007B689A657B68002283F85420012398E043
:101338007B681B681846FFF7BBFF0346002B7FD16D
:10134800BB681846FFF7B4FF0346002B78D1494B1A
:101358003B673B681B68002B3FD03B6F9B6823F4BF
:1013680060423B6859687B685B6B5B030B431A43BD
:101378003B6F9A607B681B689B6803F00303012B33
:1013880008D17B681B681B6803F00103012B01D19E
:10139800012300E00023002B5CD1BB689B6803F0AD
:1013A8000303012B07D1BB681B6803F00103012B62
:1013B80001D1012300E00023002B4BD13B6F9B6838
:1013C80023F4716323F00F033A6811683A6892684E
:1013D8000A431A433B6F9A603CE03B6F9B6823F4D7
:1013E80060423B6F9A607B681B689B6803F003034D
:1013F800012B08D17B681B681B6803F00103012BD4
:1014080001D1012300E00023002B23D1BB689B6896
:1014180003F00303012B07D1BB681B6803F001032A
:10142800012B01D1012300E00023002B12D13B6FD7
:101438009B6823F4716323F00F033A6F936009E00C
:101448007B689B6D43F020027B689A65012387F8CF
:10145800773000E000BF7B68002283F8542097F8BB
:10146800773018467837BD4680BD00BF000004506D
:10147800000104500003045080B584B000AF7860C8
:101488007B68002B01D10123ECE07B6893F82030C6
:10149800DBB2002B02D1786807F00CFB7B681B6875
:1014A8007A681268126822F002021A60FFF748F898
:1014B800F86012E0FFF744F80246FB68D31A0A2BDB
:1014C8000BD97B685B6A43F400327B685A627B689D
:1014D800052283F820200123C4E07B681B685B6831
:1014E80003F00203002BE5D17B681B687A68126859
:1014F800126842F001021A60FFF722F8F86012E061
:10150800FFF71EF80246FB68D31A0A2B0BD97B6833
:101518005B6A43F400327B685A627B68052283F871
:10152800202001239EE07B681B685B6803F00103B1
:10153800002BE5D07B681B7E012B08D17B681B68DC
:101548007A681268126842F080021A6007E07B68C5
:101558001B687A681268126822F080021A607B6839
:101568005B7E012B08D17B681B687A681268126859
:1015780042F040021A6007E07B681B687A681268CC
:10158800126822F040021A607B689B7E012B08D10A
:101598007B681B687A681268126842F020021A6039
:1015A80007E07B681B687A681268126822F02002DC
:1015B8001A607B68DB7E012B08D17B681B687A6820
:1015C8001268126822F010021A6007E07B681B6834
:1015D8007A681268126842F010021A607B681B7FF2
:1015E800012B08D17B681B687A681268126842F080
:1015F80008021A6007E07B681B687A68126812683C
:1016080022F008021A607B685B7F012B08D17B6897
:101618001B687A681268126842F004021A6007E0D0
:101628007B681B687A681268126822F004021A60E4
:101638007B681B687A6891687A68D26811437A680F
:10164800126911437A68526911437A685268013AFB
:101658000A43DA617B6800225A627B68012283F8B8
:101668002020002318461037BD4680BD80B485B0C1
:1016780000AF78607B6803F00703FB600C4BDB6806
:10168800BB60BA684FF6FF031340BB60FB681A02E1
:10169800BB68134343F0BF6343F40033BB60044AA1
:1016A800BB68D36000BF1437BD465DF8047B704744
:1016B80000ED00E080B400AF044BDB681B0A03F0C8
:1016C80007031846BD465DF8047B704700ED00E04F
:1016D80080B483B000AF0346FB71094997F907301E
:1016E8005B09FA7902F01F02012000FA02F241F8C0
:1016F800232000BF0C37BD465DF8047B704700BF50
:1017080000E100E080B483B000AF03463960FB71AC
:1017180097F90730002B0BDA0D49FB7903F00F031B
:10172800043B3A68D2B21201D2B20B441A7609E0ED
:10173800084997F907303A68D2B21201D2B20B447D
:1017480083F8002300BF0C37BD465DF8047B704763
:1017580000ED00E000E100E080B489B000AFF8607F
:10176800B9607A60FB6803F00703FB61FB69C3F1AA
:101778000703042B28BF0423BB61FB690433062B32
:1017880002D9FB69033B00E000237B610122BB69AE
:1017980002FA03F35A1EBB681A407B699A4001217A
:1017A8007B6901FA03F3591E7B680B401343184603
:1017B8002437BD465DF8047B7047000080B582B0D1
:1017C80000AF78607B68013BB3F1807F01D30123D0
:1017D8000FE00A4A7B68013B53600F214FF0FF304E
:1017E800FFF790FF054B00229A60044B07221A600E
:1017F800002318460837BD4680BD00BF10E000E052
:1018080080B582B000AF78607868FFF72FFF00BF1F
:101818000837BD4680BD80B586B000AF0346B960C5
:101828007A60FB7300237B61FFF744FF78617A6875
:10183800B9687869FFF790FF024697F90F301146AB
:101848001846FFF75FFF00BF1837BD4680BD80B55B
:1018580082B000AF0346FB7197F907301846FFF7CF
:1018680037FF00BF0837BD4680BD80B582B000AFE6
:1018780078607868FFF7A2FF034618460837BD4628
:1018880080BD000080B483B000AF78607B68042B13
:1018980006D1094A084B1B6843F00403136005E0AE
:1018A800054A054B1B6823F00403136000BF0C377F
:1018B800BD465DF8047B704710E000E080B500AFDE
:1018C80000F002F800BF80BD80B400AF00BFBD4685
:1018D8005DF8047B7047000080B485B000AF786085
:1018E8007B68002B01D1012398E07B681B681A46AE
:1018F8004D4B9A420FD87B681B681A464B4B1344D2
:101908004B4AA2FB03231B099A007B685A647B6835
:10191800484A1A640EE07B681B681A46464B134413
:10192800434AA2FB03231B099A007B685A647B681D
:10193800424A1A647B68022283F825207B681B6868
:101948001B68FB60FB6823F4FF4323F07003FB6014
:101958007B689A687B68DB681A437B681B691A4353
:101968007B685B691A437B689B691A437B68DB6900
:101978001A437B681B6A1343FA681343FB607B684E
:101988001B68FA681A607B689B68B3F5804F39D08A
:101998007B681B6C274A93421AD12949284B1A683D
:1019A8007B685B6C03F01C030F2000FA03F3DB4336
:1019B80013400B602248224B1A687B6859687B6881
:1019C8005B6C03F01C0301FA03F31343036019E093
:1019D8001C491C4B1A687B685B6C03F01C030F20C6
:1019E80000FA03F3DB4313400B601648154B1A68E3
:1019F8007B6859687B685B6C03F01C0301FA03F38E
:101A0800134303607B680022DA637B68012283F852
:101A180025207B68002283F82420002318461437E9
:101A2800BD465DF8047B704707040240F8FFFDBF20
:101A3800CDCCCCCC00000240F8FBFDBF0004024036
:101A4800A8000240A804024080B586B000AFF86044
:101A5800B9607A603B600023FB75FB6893F824301B
:101A6800012B01D102234BE0FB68012283F82420DB
:101A7800FB6893F82530DBB2012B3AD1FB680222D0
:101A880083F82520FB680022DA63FB681B68FA6884
:101A98001268126822F001021A603B687A68B96815
:101AA800F86800F0E0F8FB681B6B002B08D0FB68B7
:101AB8001B68FA681268126842F00E021A600FE09A
:101AC800FB681B68FA681268126822F004021A6040
:101AD800FB681B68FA681268126842F00A021A600A
:101AE800FB681B68FA681268126842F001021A6003
:101AF80005E0FB68002283F824200223FB75FB7DA8
:101B080018461837BD4680BD80B584B000AF7860F0
:101B18007B681B6C1B68FB607B681B681B68BB6071
:101B28007B685B6C03F01C0304229A40FB6813403B
:101B3800002B26D0BB6803F00403002B21D07B6860
:101B48001B681B6803F02003002B07D17B681B6808
:101B58007A681268126822F004021A607B681B6CAB
:101B68007A68526C02F01C02042101FA02F25A60EF
:101B78007B681B6B002B71D07B681B6B7868984760
:101B88006CE07B685B6C03F01C0302229A40FB68E4
:101B98001340002B2ED0BB6803F00203002B29D082
:101BA8007B681B681B6803F02003002B0BD17B6844
:101BB8001B687A681268126822F00A021A607B6849
:101BC800012283F825207B681B6C7A68526C02F02E
:101BD8001C02022101FA02F25A607B68002283F893
:101BE80024207B68DB6A002B38D07B68DB6A786846
:101BF800984733E07B685B6C03F01C0308229A402B
:101C0800FB681340002B2AD0BB6803F00803002BA5
:101C180025D07B681B687A681268126822F00E0269
:101C28001A607B681B6C7A68526C02F01C020121F6
:101C380001FA02F25A607B680122DA637B680122AA
:101C480083F825207B68002283F824207B685B6B5F
:101C5800002B04D07B685B6B7868984700BF00BF97
:101C68001037BD4680BD80B485B000AFF860B9605C
:101C78007A603B60FB681B6CFA68526C02F01C02CD
:101C8800012101FA02F25A60FB681B683A685A603F
:101C9800FB689B68102B08D1FB681B687A689A6000
:101CA800FB681B68BA68DA6007E0FB681B68BA68FB
:101CB8009A60FB681B687A68DA6000BF1437BD4613
:101CC8005DF8047B7047000080B487B000AF78608F
:101CD800396000237B610023FB6000233B617FE1C7
:101CE8003B681A6801217B6901FA03F31340FB6022
:101CF800FB68002B00F071813B685B68022B03D006
:101D08003B685B68122B23D17B69DA087B68083251
:101D180053F822303B617B6903F007039B000F22D5
:101D280002FA03F3DB433A6913403B613B681A69E3
:101D38007B6903F007039B0002FA03F33A69134334
:101D48003B617B69DA087B680832396943F82210FD
:101D58007B681B683B617B695B00032202FA03F323
:101D6800DB433A6913403B613B685B6803F003025D
:101D78007B695B0002FA03F33A6913433B617B68B2
:101D88003A691A603B685B68012B0BD03B685B685B
:101D9800022B07D03B685B68112B03D03B685B685C
:101DA800122B30D17B689B683B617B695B00032207
:101DB80002FA03F3DB433A6913403B613B68DA6894
:101DC8007B695B0002FA03F33A6913433B617B6862
:101DD8003A699A607B685B683B6101227B6902FA19
:101DE80003F3DB433A6913403B613B685B681B09BB
:101DF80003F001027B6902FA03F33A6913433B617A
:101E08007B683A695A603B685B6803F00303032BFD
:101E180018D17B68DB6A3B6101227B6902FA03F314
:101E2800DB433A6913403B613B685B68DB0803F0BE
:101E380001027B6902FA03F33A6913433B617B6849
:101E48003A69DA627B68DB683B617B695B00032285
:101E580002FA03F3DB433A6913403B613B689A6833
:101E68007B695B0002FA03F33A6913433B617B68C1
:101E78003A69DA603B685B6803F08053002B00F036
:101E8800AC805E4A5D4B1B6E43F0010313665B4BEF
:101E98001B6E03F00103BB60BB68594A7B699B0852
:101EA800023352F823303B617B6903F003039B0044
:101EB8000F2202FA03F3DB433A6913403B617B6864
:101EC800B3F1904F25D07B684E4A93421FD07B6870
:101ED8004D4A934219D07B684C4A934213D07B6891
:101EE8004B4A93420DD07B684A4A934207D07B689D
:101EF800494A934201D106230CE007230AE005234F
:101F080008E0042306E0032304E0022302E001239F
:101F180000E000237A6902F00302920093403A69D4
:101F280013433B6136497B699B0802333A6941F8A0
:101F380023203A4B1B683B61FB68DB433A6913403B
:101F48003B613B685B6803F48033002B03D03A693C
:101F5800FB6813433B61314A3B6913602F4B5B6855
:101F68003B61FB68DB433A6913403B613B685B6854
:101F780003F40033002B03D03A69FB6813433B6139
:101F8800264A3B695360254B9B683B61FB68DB43F2
:101F98003A6913403B613B685B6803F48013002B8C
:101FA80003D03A69FB6813433B611C4A3B69936061
:101FB8001A4BDB683B61FB68DB433A6913403B61C2
:101FC8003B685B6803F40013002B03D03A69FB6895
:101FD80013433B61114A3B69D3607B6901337B61E1
:101FE8003B681A687B6922FA03F3002B7FF478AE0A
:101FF80000BF1C37BD465DF8047B704700100240E7
:10200800000001400004004800080048000C004897
:10201800001000480014004800180048000401405F
:1020280080B487B000AF7860396000237B610023FB
:102038003B610023FB60CDE001227B699A403B684D
:1020480013403B613B69002B00F0C1807B681A6834
:102058007B695B00032101FA03F31A437B681A606A
:102068007B69DA087B69D9087B68083153F8211045
:102078007B6903F007039B000F2000FA03F3DB439F
:1020880019407B68083243F822107B689A687B699C
:102098005B00032101FA03F3DB431A407B689A6073
:1020A8007B685A6801217B6901FA03F3DB431A4014
:1020B8007B685A607B68DA687B695B00032101FAF8
:1020C80003F3DB431A407B68DA607B68DA6A012134
:1020D8007B6901FA03F3DB431A407B68DA62444AFE
:1020E8007B699B08023352F82330FB607B6903F05D
:1020F80003039B000F2202FA03F3FA681340FB6004
:102108007B68B3F1904F25D07B683A4A93421FD041
:102118007B68394A934219D07B68384A934213D076
:102128007B68374A93420DD07B68364A934207D082
:102138007B68354A934201D106230CE007230AE065
:10214800052308E0042306E0032304E0022302E059
:10215800012300E000237A6902F00302920003FAE7
:1021680002F2FB689A4232D17B6903F003039B00B9
:102178000F2202FA03F3FB601D487B699B081C4988
:102188007A699208023251F82210FA68D2430A405A
:10219800023340F823201D491C4B1A683B69DB4376
:1021A80013400B601949194B5A683B69DB431340CC
:1021B8004B601649154B9A683B69DB4313408B60AB
:1021C8001249124BDA683B69DB431340CB607B69E9
:1021D80001337B613A687B6922FA03F3002B7FF4B1
:1021E8002BAF00BF1C37BD465DF8047B704700BFAE
:1021F800000001400004004800080048000C0048A6
:10220800001000480014004800180048000401406D
:1022180080B483B000AF78600B467B8013467B7038
:102228007B78002B03D07A887B689A6102E07A88F1
:102238007B689A6200BF0C37BD465DF8047B704727
:1022480080B582B000AF78607B68002B05D17B68D1
:102258004FF400725A64012380E07B6893F84130A0
:10226800DBB2002B06D17B68002283F84020786817
:1022780006F074FD7B68242283F841207B681B6884
:102288007A681268126822F001021A607B681B687B
:102298007A68526822F070621A617B681B687A68F3
:1022A8001268926822F400429A607B68DB68012B0E
:1022B80007D17B681B687A68926842F400429A608A
:1022C80006E07B681B687A68926842F404429A6068
:1022D8007B68DB68022B04D17B681B684FF40062C3
:1022E8005A607B681A687B681B685B6843F00073F8
:1022F80043F4004353607B681B687A681268D268AD
:1023080022F40042DA607B681B687A6811697A688F
:10231800526911437A68926912020A43DA607B684B
:102328001B687A68D1697A68126A0A431A607B68FE
:102338001B687A681268126842F001021A607B68AA
:1023480000225A647B68202283F841207B6800229F
:102358001A637B68002283F8422000231846083756
:10236800BD4680BD80B582B000AF78607B68002B29
:1023780005D17B684FF400725A64012321E07B6821
:10238800242283F841207B681B687A6812681268E7
:1023980022F001021A60786806F018FD7B680022B6
:1023A8005A647B68002283F841207B6800221A6304
:1023B8007B68002283F842207B68002283F8402053
:1023C800002318460837BD4680BD000080B588B098
:1023D80002AFF860084611461A4603467B810B4651
:1023E8003B811346FB80FB6893F84130DBB2202B1E
:1023F80040F0FB803B6A002B02D0BB8C002B05D140
:10240800FB684FF400725A640123EFE0FB6893F80D
:102418004030012B01D10223E8E0FB68012283F858
:102428004020FEF78DF878617B690093192301221B
:102438004FF40041F86800F059F90346002B01D029
:102448000123D3E0FB68222283F84120FB68402265
:1024580083F84220FB6800225A64FB683A6A5A6291
:10246800FB68BA8C5A85FB6800225A63F8883A8957
:1024780079897B690193BB6A00930346F86800F089
:10248800BDF80346002B05D0FB68002283F84020E6
:102498000123ABE0FB685B8D9BB2FF2B0ED9FB6879
:1024A800FF221A85FB681B8DDAB27989514B00939C
:1024B8004FF08073F86800F03BFA0FE0FB685B8D23
:1024C8009AB2FB681A85FB681B8DDAB27989494B89
:1024D80000934FF00073F86800F02AFA7B690093C4
:1024E800BB6A00220421F86800F000F90346002BBB
:1024F80001D001237AE0FB685B6A591CFA685162D3
:10250800FA681268526AD2B21A70FB681B8D013BD6
:102518009AB2FB681A85FB685B8D9BB2013B9AB245
:10252800FB685A85FB685B8D9BB2002B34D0FB6837
:102538001B8D002B30D17B690093BB6A0022802160
:10254800F86800F0D3F80346002B01D001234DE0D2
:10255800FB685B8D9BB2FF2B0ED9FB68FF221A85A7
:10256800FB681B8DDAB27989002300934FF08073E2
:10257800F86800F0DDF90FE0FB685B8D9AB2FB6844
:102588001A85FB681B8DDAB27989002300934FF016
:102598000073F86800F0CCF9FB685B8D9BB2002BE8
:1025A8009CD17A69B96AF86800F020F90346002BD3
:1025B80001D001231AE0FB681B682022DA61FB685E
:1025C8001A68FB681B6859680B4B0B405360FB6823
:1025D800202283F84120FB68002283F84220FB6810
:1025E800002283F84020002300E002231846183711
:1025F800BD4680BD0024008000E800FE80B586B09E
:1026080002AFF860084611461A4603467B810B461E
:102618003B811346FB80FB88DAB27989204B009313
:102628000023F86800F084F9FA69B969F86800F0DD
:102638009DF80346002B01D001232CE0FB88012BD9
:1026480005D1FB681B683A89D2B29A6215E0FB682B
:102658001B683A89120A92B2D2B29A62FA69B969C7
:10266800F86800F083F80346002B01D0012312E03C
:10267800FB681B683A89D2B29A62FB690093BB690E
:1026880000224021F86800F031F80346002B01D001
:10269800012300E0002318461037BD4680BD00BF67
:1026A8000020008080B483B000AF78607B681B682E
:1026B8009B6903F00203022B03D17B681B6800228D
:1026C8009A627B681B689B6903F00103012B07D0A2
:1026D8007B681B687A681268926942F001029A6105
:1026E80000BF0C37BD465DF8047B704780B584B0E9
:1026F80000AFF860B9603B601346FB7122E03B68AD
:10270800B3F1FF3F1ED0FDF71BFF0246BB69D21A8B
:102718003B689A4202D83B68002B13D1FB685B6C7C
:1027280043F02002FB685A64FB68202283F84120AA
:10273800FB68002283F84220FB68002283F84020CF
:1027480001230FE0FB681B689A69BB681A40BB68E5
:102758009A420CBF01230023DBB21A46FB799A4246
:10276800CDD0002318461037BD4680BD80B584B053
:1027780000AFF860B9607A602CE07A68B968F868E8
:1027880000F070F80346002B01D001232AE0BB6853
:10279800B3F1FF3F1ED0FDF7D3FE02467B68D21A85
:1027A800BB689A4202D8BB68002B13D1FB685B6CEC
:1027B80043F02002FB685A64FB68202283F841201A
:1027C800FB68002283F84220FB68002283F840203F
:1027D800012307E0FB681B689B6903F00203022BD7
:1027E800CBD1002318461037BD4680BD80B584B0D4
:1027F80000AFF860B9607A6028E07A68B968F8686C
:1028080000F030F80346002B01D0012326E0FDF745
:1028180097FE02467B68D21ABB689A4202D8BB6808
:10282800002B13D1FB685B6C43F02002FB685A64F1
:10283800FB68202283F84120FB68002283F84220AD
:10284800FB68002283F84020012307E0FB681B682F
:102858009B6903F02003202BCFD1002318461037A3
:10286800BD4680BD80B584B000AFF860B9607A60BD
:10287800FB681B689B6903F01003102B51D122E001
:10288800BB68B3F1FF3F1ED0FDF75AFE02467B68D6
:10289800D21ABB689A4202D8BB68002B13D1FB68D6
:1028A8005B6C43F02002FB685A64FB68202283F8C3
:1028B8004120FB68002283F84220FB68002283F84D
:1028C800402001232EE0FB681B689B6903F020036E
:1028D800202BD5D1FB681B681022DA61FB681B68C6
:1028E8002022DA61F868FFF7DDFEFB681A68FB68EA
:1028F8001B6859680D4B0B405360FB685B6C43F0D9
:102908000402FB685A64FB68202283F84120FB68B4
:10291800002283F84220FB68002283F8402001232C
:1029280000E0002318461037BD4680BD00E800FED1
:1029380080B485B000AFF8607B600B467B8113469E
:102948007B72FB681A68FB681B685968BB695B0D7A
:1029580003F480600B4B0343DB4319407B89C3F3CB
:1029680009007B7A1B0403F47F0318437B68184330
:10297800BB6903430B43536000BF1437BD465DF882
:10298800047B7047FF63FF0380B483B000AF7860B7
:1029980039607B6893F84130DBB2202B38D17B68F3
:1029A80093F84030012B01D1022332E07B680122E9
:1029B80083F840207B68242283F841207B681B68C9
:1029C8007A681268126822F001021A607B681B6834
:1029D8007A681268126822F480521A607B681B6851
:1029E8007A68126811683A680A431A607B681B683B
:1029F8007A681268126842F001021A607B68202225
:102A080083F841207B68002283F84020002300E0FF
:102A1800022318460C37BD465DF8047B704780B426
:102A280085B000AF786039607B6893F84130DBB2DD
:102A3800202B39D17B6893F84030012B01D1022338
:102A480033E07B68012283F840207B68242283F8E6
:102A580041207B681B687A681268126822F00102BC
:102A68001A607B681B681B68FB60FB6823F4706353
:102A7800FB603B681B02FA681343FB607B681B68BA
:102A8800FA681A607B681B687A681268126842F0F4
:102A980001021A607B68202283F841207B680022AB
:102AA80083F84020002300E0022318461437BD466F
:102AB8005DF8047B7047F0B58FB00AAF78607B682B
:102AC800002B01D10123FBE07B6893F8BD33DBB217
:102AD800002B06D17B68002283F8BC23786806F0B7
:102AE8002DFE7B68032283F8BD237B681B6818468C
:102AF80003F0F6FA7B681B683B607E686D4606F15A
:102B080010040FCC0FC50FCC0FC594E8030085E85F
:102B18000300331D0ECB386803F08FFA7B681B68FF
:102B28000021184603F0EDFA0023FB734AE0FA7B14
:102B380079681346DB009B1A9B000B443D33012246
:102B48001A70FA7B79681346DB009B1A9B000B44CA
:102B58003C33FA7B1A70FA7BFB7B98B27968134690
:102B6800DB009B1A9B000B44423302461A80FA7B17
:102B780079681346DB009B1A9B000B443F33002205
:102B88001A70FA7B79681346DB009B1A9B000B448A
:102B9800443300221A60FA7B79681346DB009B1ADB
:102BA8009B000B44483300221A60FA7B796813466D
:102BB800DB009B1A9B000B44503300221A60FB7BFE
:102BC8000133FB73FB7B0E2BB1D90023FB7344E06D
:102BD800FA7B79681346DB009B1A9B000B4403F2CF
:102BE800FD1300221A70FA7B79681346DB009B1AE2
:102BF8009B000B4403F5FE73FA7B1A70FA7B796825
:102C08001346DB009B1A9B000B4403F2FF130022C0
:102C18001A70FA7B79681346DB009B1A9B000B44F9
:102C280003F5017300221A60FA7B79681346DB000A
:102C38009B1A9B000B4403F5027300221A60FA7B6F
:102C480079681346DB009B1A9B000B4403F5047359
:102C580000221A60FB7B0133FB73FB7B0E2BB7D979
:102C68007B681B683B607E686D4606F110040FCCDC
:102C78000FC50FCC0FC594E8030085E80300331D8A
:102C88000ECB386803F068FA7B68002283F8382096
:102C98007B68012283F8BD237B685B6A012B02D124
:102CA800786800F095FF7B689B6A012B02D17868F1
:102CB80000F0B2FF7B681B68184604F094F9002303
:102CC80018461437BD46F0BD80B582B000AF7860B5
:102CD8007B6893F8BC33012B01D1022312E07B6897
:102CE800012283F8BC237B681B68184604F062F94C
:102CF8007B681B68184603F0E2F97B68002283F8BA
:102D0800BC23002318460837BD4680BD80B58EB069
:102D180000AF78607B681B68BB62BB6A7B627B6ABA
:102D280040333B623B6A1B68FB610023FB627B68A4
:102D38001B68184604F003FA0346002B40F042844F
:102D48007B681B68184604F067F90346002B00F0FF
:102D580038847B681B68184604F05EF9034603F064
:102D68000203022B07D17B681B687A6812685269D4
:102D780002F002025A617B681B68184604F04CF99D
:102D8800034603F40023B3F5002F40F087800023A7
:102D9800FB627B681B68184604F051F938637AE0D7
:102DA8003B6B03F00103002B6FD07B681B68FA6A4A
:102DB800D2B21146184604F076F9B861BB6903F03F
:102DC8000103002B2CD0FB6A5A017B6A134403F5DC
:102DD80030631A4601239360FB698C4A934219D1E8
:102DE8007B6A03F530639B6803F40043002B0AD029
:102DF800FB6A5A017B6A134403F530631A464FF4A1
:102E0800004393600CE0FB6ADBB21946786806F071
:102E1800F9FC05E0FB6ADBB21946786806F0F2FCBB
:102E2800BB6903F00803002B21D0FB69774A934262
:102E380011D17B6A03F530639B6803F40043002BD0
:102E480009D0FB6A5A017B6A134403F530631A46BA
:102E58004FF400439360786806F0C2FCFB6A5A019D
:102E68007B6A134403F530631A4608239360BB69F1
:102E780003F01003002B08D0FB6A5A017B6A134445
:102E880003F530631A4610239360FB6A0133FB6233
:102E98003B6B5B083B633B6B002B81D17B681B68FA
:102EA800184604F0B9F8034603F48023B3F5802FDD
:102EB80040F088807B681B68184604F0DAF83863AD
:102EC8000023FB627BE03B6B03F00103002B70D017
:102ED8007B681B68FA6AD2B21146184604F001F9F9
:102EE800B861BB6903F00103002B21D0FB6A03F032
:102EF8000F03012202FA03F37B617B6A03F5006387
:102F080019467B6A03F500635A6B7B69DB43134000
:102F18004B63FB6A5A017B6A134403F510631A4634
:102F280001239360FB6ADBB21946786806F085FCDA
:102F3800BB6903F00803002B08D0FB6A5A017B6ABF
:102F4800134403F510631A4608239360BB6903F022
:102F58001003002B08D0FB6A5A017B6A134403F55F
:102F680010631A4610239360BB6903F04003002BDB
:102F780008D0FB6A5A017B6A134403F510631A46AA
:102F880040239360BB6903F00203002B08D0FB6A5F
:102F98005A017B6A134403F510631A4602239360AF
:102FA800BB6903F08003002B03D0F96A786800F04E
:102FB80030FDFB6A0133FB623B6B5B083B633B6B99
:102FC800002B80D17B681B68184604F025F803465F
:102FD80003F00043B3F1004F25D17B6A03F500638A
:102FE8001A467B6A03F500635B6823F001035360AC
:102FF8007B6893F8F433012B0AD17B68002283F8AD
:10300800F4230021786806F045FF04E00A31544FA4
:10301800786806F085FC7B681B687A6812685269D4
:1030280002F000425A617B681B68184603F0F4FFFF
:10303800034603F40063B3F5006F12D17B6A03F50E
:1030480000639B6803F00103012B02D1786806F046
:103058003FFC7B681B687A681268526902F4006258
:103068005A617B681B68184603F0D6FF034603F0D5
:103078000063B3F1006F21D17B681B687A6812681E
:10308800526902F000625A617B6893F8F433002BAE
:1030980011D17B68012283F8F4237B681B685B6D80
:1030A8009B0803F00F027B68C3F8F82301217868B6
:1030B80006F0F0FE02E0786806F00AFC7B681B6800
:1030C800184603F0A9FF034603F48053B3F5805F65
:1030D80040F0AC807B6A03F500631A467B6A03F50F
:1030E80000635B6823F0010353607B681B68102151
:1030F800184603F065F900237B6338E07B6B5A01BF
:103108007B6A134403F510631A464FF67F339360C6
:103118007B6B5A017B6A134403F5106319467B6B7A
:103128005A017B6A134403F510631B6823F40013E8
:103138000B607B6B5A017B6A134403F530631A46B4
:103148004FF67F3393607B6B5A017B6A134403F518
:10315800306319467B6B5A017B6A134403F530636D
:103168001B6823F400130B607B6B01337B637B6864
:103178005A687B6B9A42C1D87B6A03F500631A468A
:103188007B6A03F50063DB6943F00113D3617B6855
:103198001B6B002B18D07B6A03F500631A467B6A09
:1031A80003F50063D3F8843043F00B03C2F884308E
:1031B8007B6A03F500631A467B6A03F500635B6C60
:1031C80043F00B03536415E07B6A03F500631A466A
:1031D8007B6A03F500635B6943F00B0353617B6A09
:1031E80003F500631A467B6A03F500631B6943F025
:1031F8000B0313617B6A03F500631A467B6A03F5C8
:1032080000631B6823F4FE6313607B681A687B689D
:1032180003F571731946104603F0D7FF7B681B68E6
:103228007A681268526902F480525A617B681B6896
:10323800184603F0F1FE034603F40053B3F5005FAC
:1032480040F0C2807B681B68184603F086FF7B68E5
:103258001B687A681268D26822F47052DA607B6858
:103268000322DA607B6840225A6101F051FA386122
:103278003B697C4A93420CD93B697B4A934208D804
:103288007B681B687A681268D26842F47052DA6008
:103298008FE03B69744A93420CD93B69734A934265
:1032A80008D87B681B687A681268D26842F4605252
:1032B800DA607EE03B696D4A93420CD93B696C4AFF
:1032C800934208D87B681B687A681268D26842F40F
:1032D8005052DA606DE03B69654A93420CD93B690C
:1032E800644A934208D87B681B687A681268D26877
:1032F80042F44052DA605CE03B695E4A93420CD982
:103308003B695D4A934208D87B681B687A681268F3
:10331800D26842F43052DA604BE03B69564A934235
:103328000CD93B69554A934208D87B681B687A6870
:103338001268D26842F42052DA603AE03B694F4A98
:1033480093420CD93B694E4A934208D87B681B6864
:103358007A681268D26842F41052DA6029E03B6950
:10336800474A93420CD93B69464A934208D87B683E
:103378001B687A681268D26842F40052DA6018E072
:103388003B69404A93420CD93B693F4A934208D86B
:103398007B681B687A681268D26842F4E052DA6087
:1033A80007E07B681B687A681268D26842F4C052EA
:1033B800DA60786806F069FA7B681B687A681268D0
:1033C800526902F400525A617B681B68184603F080
:1033D80023FE034603F01003102B76D17B681B688D
:1033E8007A681268926922F010029A61BB6A1B6AB5
:1033F800FB60FB6803F00F021346DB009B1A9B007F
:1034080003F5FC737A6813440433BB60FB685B0CF8
:1034180003F00F03022B39D1FA6847F6F073134013
:10342800002B4AD0BB68D968FB681B099BB2C3F361
:103438000A039BB21A46B86A03F08FFCBB68DA68C5
:10344800FB681B09C3F30A031A44BB68DA60BB684C
:103458009A69FB681B09C3F30A031A44BB689A619B
:103468002BE000BFBFACD800BFE1E400FF23F400AD
:103478007F7306019F491A01FF2C31013FA44C01BB
:10348800FF356E011FABA601FF47E801FB685B0C27
:1034980003F00F03062B10D17B6803F57173082224
:1034A8001946B86A03F059FCBB689A69FB681B099E
:1034B800C3F30A031A44BB689A617B681B687A687D
:1034C8001268926942F010029A617B681B6818467C
:1034D80003F0A2FD034603F00803082B0AD178681D
:1034E80006F0C5F97B681B687A681268526902F0B1
:1034F80008025A617B681B68184603F08DFD034675
:1035080003F48013B3F5801F0DD1FB6ADBB21946B3
:10351800786806F041FA7B681B687A681268526915
:1035280002F480125A617B681B68184603F074FD28
:10353800034603F40013B3F5001F0DD1FB6ADBB299
:103548001946786806F016FA7B681B687A6812686C
:10355800526902F400125A617B681B68184603F02E
:103568005BFD034603F08043B3F1804F0AD17868CE
:1035780006F024FA7B681B687A681268526902F0C0
:1035880080425A617B681B68184603F045FD034674
:1035980003F00403042B15D17B681B685B68FB6090
:1035A800FB6803F00403002B02D0786806F014FAD5
:1035B8007B681B687A6812685168FA680A435A601F
:1035C80000E000BF3837BD4680BD00BF80B582B07F
:1035D80000AF78600B46FB707B6893F8BC33012B17
:1035E80001D1022313E07B68012283F8BC237B68A6
:1035F800FA7883F838207B681B68FA7811461846F1
:1036080003F0B0FC7B68002283F8BC230023184633
:103618000837BD4680BD80B584B000AF78600846E5
:1036280011461A460346FB700B463B801346BB7097
:103638000023FB7297F90330002B0FDAFB7803F0B5
:103648000F021346DB009B1A9B0038337A68134439
:103658000433FB60FB6801225A700FE0FB7803F02B
:103668000F021346DB009B1A9B0003F5FC737A6874
:1036780013440433FB60FB6800225A70FB7803F0A4
:103688000F03DAB2FB681A703A88FB689A60FB6825
:10369800BA78DA70FB685B78002B04D0FB681B787B
:1036A8009AB2FB68DA80BB78022B02D1FB68002251
:1036B8001A717B6893F8BC33012B01D102230EE009
:1036C8007B68012283F8BC237B681B68F96818466D
:1036D80002F0D8FE7B68002283F8BC23FB7A1846E8
:1036E8001037BD4680BD80B584B000AF78600B460A
:1036F800FB7097F90330002B0FDAFB7803F00F0209
:103708001346DB009B1A9B0038337A681344043352
:10371800FB60FB6801225A700FE0FB7803F00F0290
:103728001346DB009B1A9B0003F5FC737A6813446D
:103738000433FB60FB6800225A70FB7803F00F0328
:10374800DAB2FB681A707B6893F8BC33012B01D19D
:1037580002230EE07B68012283F8BC237B681B6888
:10376800F968184602F01AFF7B68002283F8BC2328
:10377800002318461037BD4680BD80B586B000AF1F
:10378800F8607A603B600B46FB72FB7A03F00F022D
:103798001346DB009B1A9B0003F5FC73FA6813447D
:1037A80004337B617B697A68DA607B693A685A61BD
:1037B8007B6900229A617B6900225A70FB7A03F0C8
:1037C8000F03DAB27B691A70FB7A03F00F03002B40
:1037D80006D1FB681B687969184603F061F905E0B2
:1037E800FB681B687969184602F060FF00231846D9
:1037F8001837BD4680BD80B483B000AF78600B46F3
:10380800FB70FB7803F00F0279681346DB009B1A04
:103818009B000B4403F505731B689BB218460C37D5
:10382800BD465DF8047B704780B586B000AFF86090
:103838007A603B600B46FB72FB7A03F00F0213467B
:10384800DB009B1A9B003833FA68134404337B610E
:103858007B697A68DA607B693A685A617B69002219
:103868009A617B6901225A70FB7A03F00F03DAB27E
:103878007B691A70FB7A03F00F03002B06D1FB68F3
:103888001B687969184603F00BF905E0FB681B68AB
:103898007969184602F00AFF002318461837BD4612
:1038A80080BD80B584B000AF78600B46FB70FB78B4
:1038B80003F00F027B685B689A4201D901234EE04E
:1038C80097F90330002B0FDAFB7803F00F02134649
:1038D800DB009B1A9B0038337A6813440433FB607F
:1038E800FB6801225A700DE0FA781346DB009B1A38
:1038F8009B0003F5FC737A6813440433FB60FB6890
:1039080000225A70FB6801229A70FB7803F00F03BB
:10391800DAB2FB681A707B6893F8BC33012B01D1CB
:1039280002231CE07B68012283F8BC237B681B68A8
:10393800F968184603F03AFAFB7803F00F03002BF6
:1039480008D17B681A687B6803F5717319461046BD
:1039580003F03BFC7B68002283F8BC230023184655
:103968001037BD4680BD80B584B000AF78600B4687
:10397800FB70FB7803F00F027B685B689A4201D901
:10398800012342E097F90330002B0FDAFB7803F0AC
:103998000F021346DB009B1A9B0038337A681344E6
:1039A8000433FB60FB6801225A700FE0FB7803F0D8
:1039B8000F021346DB009B1A9B0003F5FC737A6821
:1039C80013440433FB60FB6800225A70FB68002232
:1039D8009A70FB7803F00F03DAB2FB681A707B6801
:1039E80093F8BC33012B01D102230EE07B6801223E
:1039F80083F8BC237B681B68F968184603F048FA0B
:103A08007B68002283F8BC23002318461037BD4684
:103A180080BD80B588B000AF786039607B681B686E
:103A28007B617B693B613A681346DB009B1A9B000C
:103A380038337A6813440433FB60FB689A69FB687F
:103A48005B699A4201D9012366E0FB685A69FB6801
:103A58009B69D31AFB61FB689A68FB699A4202D298
:103A6800FB689B68FB61FB6903339B08BB6126E02D
:103A7800FB685A69FB689B69D31AFB61FB689A6803
:103A8800FB699A4202D2FB689B68FB61FB690333BE
:103A98009B08BB61FB68D9683B68DAB2FB699BB2DB
:103AA800786903F029F9FB68DA68FB691A44FB684E
:103AB800DA60FB689A69FB691A44FB689A613B689B
:103AC8005A013B69134403F510639B699AB2BB69B9
:103AD8009A4209D9FB689A69FB685B699A4203D2E2
:103AE800FB685B69002BC3D1FB685A69FB689B695B
:103AF8009A4210D801223B6802FA03F3BB603B6983
:103B080003F5006319463B6903F500635A6BBB680C
:103B1800DB4313404B63002318462037BD4680BD66
:103B280080B485B000AF78600B46FB7013463B80CD
:103B38007B681B685B6ABB60FB78002B07D17B68DE
:103B48001B683A881104BA680A439A6228E07B68BD
:103B58001B689B6A1B0CBA681344BB600023FB7389
:103B68000DE07B681A68FB7B40339B0013445B685D
:103B78001B0CBA681344BB60FB7B0133FB73FA7BF5
:103B8800FB78013B9A42ECD37B681968FB78013BD0
:103B98003A881004BA68024340339B000B445A60C9
:103BA800002318461437BD465DF8047B704780B47F
:103BB80083B000AF78600B467B807B681B687A888F
:103BC8005A62002318460C37BD465DF8047B7047DF
:103BD80080B485B000AF78607B681B68FB607B6849
:103BE8000122C3F8FC237B68002283F8F423FB68D6
:103BF8009B6943F00062FB689A61FB685B6D43F068
:103C0800805343F00303FA685365002318461437BA
:103C1800BD465DF8047B704780B485B000AF78601E
:103C28007B681B68FB607B680122C3F80024FB6883
:103C38009B6B43F40032FB689A63002318461437E1
:103C4800BD465DF8047B704780B400AF044B1B6829
:103C580003F4C0631846BD465DF8047B704700BF97
:103C68000070004080B485B000AF78600023FB602E
:103C78007B68B3F5007F2FD1224B1B6803F4C06328
:103C8800B3F5007F37D01F4A1E4B1B6823F4C0636F
:103C980043F4007313601C4B1B681C4AA2FB0323EC
:103CA8009B0C322202FB03F3FB6002E0FB68013B42
:103CB800FB60FB68002B06D0124B5B6903F4806342
:103CC800B3F5806FF2D00F4B5B6903F48063B3F5F3
:103CD800806F10D103230FE00A4B1B6803F4C06305
:103CE800B3F5806F07D0074A064B1B6823F4C063FF
:103CF80043F480631360002318461437BD465DF80B
:103D0800047B7047007000402001002083DE1B43C5
:103D180080B400AF054A054B5B6843F48063536089
:103D280000BFBD465DF8047B704700BF00700040CF
:103D380080B586B000AF78607B68002B01D1012385
:103D480056E37B681B6803F01003002B00F0D0805B
:103D5800A14B9B6803F00C03002B79D19E4B1B6889
:103D680003F00203002B05D07B689B69002B01D16F
:103D780001233DE37B681A6A974B1B6803F008032D
:103D8800002B04D0944B1B6803F0F00305E0924B22
:103D9800D3F894301B0903F0F0039A4223D97B68C7
:103DA8001B6A184600F0E8FC0346002B01D00123EB
:103DB8001EE3894A884B1B6843F008031360864951
:103DC800854B1B6823F0F0027B681B6A13430B606A
:103DD8008149814B5B6823F47F427B68DB691B0266
:103DE80013434B6022E07C4A7B4B1B6843F008037B
:103DF80013607949784B1B6823F0F0027B681B6AD3
:103E080013430B607449744B5B6823F47F427B68EF
:103E1800DB691B0213434B607B681B6A184600F082
:103E2800ABFC0346002B01D00123E1E200F0C0FB0C
:103E38000146694B9B681B0903F00F03674AD35C73
:103E480021FA03F3664A13600020FCF74FFB4FE0AA
:103E58007B689B69002B32D05F4A5F4B1B6843F03D
:103E680001031360FCF76CFB386108E0FCF768FBA2
:103E780002463B69D31A022B01D90323B8E2564BF9
:103E88001B6803F00203002BF0D0534A524B1B6807
:103E980043F00803136050494F4B1B6823F0F002AE
:103EA8007B681B6A13430B604B494B4B5B6823F4DD
:103EB8007F427B68DB691B0213434B6018E0464A6C
:103EC800454B1B6823F001031360FCF739FB38618D
:103ED80008E0FCF735FB02463B69D31A022B01D9EF
:103EE800032385E23C4B1B6803F00203002BF0D14F
:103EF8007B681B6803F00103002B7BD0364B9B6863
:103F080003F00C03082B0BD0334B9B6803F00C0316
:103F18000C2B11D1304BDB6803F00303032B0BD1BF
:103F28002D4B1B6803F40033002B62D07B685B6861
:103F3800002B5ED101235BE27B685B68B3F5803FB1
:103F480006D1254A244B1B6843F4803313601DE0D7
:103F58007B685B68B3F5A02F0CD11F4A1E4B1B680A
:103F680043F4802313601C4A1B4B1B6843F48033C3
:103F780013600BE0184A184B1B6823F48033136056
:103F8800154A154B1B6823F4802313607B685B6814
:103F9800002B13D0FCF7D4FA386108E0FCF7D0FA0C
:103FA80002463B69D31A642B01D9032320E20A4B4A
:103FB8001B6803F40033002BF0D01BE0FCF7C0FAB9
:103FC80038610FE0FCF7BCFA02463B69D31A642B50
:103FD80008D903230CE200BF00100240A8A2000881
:103FE80020010020A94B1B6803F40033002BE9D102
:103FF80000E000BF7B681B6803F00203002B69D058
:10400800A24B9B6803F00C03042B0BD09F4B9B68BF
:1040180003F00C030C2B1CD19C4BDB6803F003034F
:10402800022B16D1994B1B6803F48063002B05D033
:104038007B68DB68002B01D10123D9E19349934BBD
:104048005B6823F0F8527B681B691B0613434B60BF
:1040580040E07B68DB68002B23D08C4A8B4B1B68C5
:1040680043F480731360FCF76BFA386108E0FCF7DF
:1040780067FA02463B69D31A022B01D90323B7E139
:10408800824B1B6803F48063002BF0D07F497F4B81
:104098005B6823F0F8527B681B691B0613434B606F
:1040A80018E07A4A794B1B6823F480731360FCF795
:1040B80047FA386108E0FCF743FA02463B69D31A2D
:1040C800022B01D9032393E1704B1B6803F480632F
:1040D800002BF0D17B681B6803F00803002B3CD051
:1040E8007B685B69002B1CD0684A684BD3F8943016
:1040F80043F00103C2F89430FCF722FA386108E073
:10410800FCF71EFA02463B69D31A022B01D9032396
:104118006EE15E4BD3F8943003F00203002BEFD02E
:104128001BE05A4A594BD3F8943023F00103C2F8E4
:104138009430FCF705FA386108E0FCF701FA02460A
:104148003B69D31A022B01D9032351E14F4BD3F812
:10415800943003F00203002BEFD17B681B6803F057
:104168000403002B00F0A6800023FB75474B9B6DD2
:1041780003F08053002B0DD1444A444B9B6D43F010
:1041880080539365414B9B6D03F08053FB60FB6844
:104198000123FB753E4B1B6803F48073002B18D179
:1041A8003B4A3B4B1B6843F480731360FCF7C8F928
:1041B800386108E0FCF7C4F902463B69D31A022BC0
:1041C80001D9032314E1324B1B6803F48073002BDD
:1041D800F0D07B689B68012B08D12C4A2B4BD3F875
:1041E800903043F00103C2F8903024E07B689B686C
:1041F800052B10D1254A254BD3F8903043F0040302
:10420800C2F89030214A214BD3F8903043F0010393
:10421800C2F890300FE01D4A1C4BD3F8903023F0C1
:104228000103C2F89030194A184BD3F8903023F0A4
:104238000403C2F890307B689B68002B16D0FCF70B
:104248007FF938610AE0FCF77BF902463B69D31A2B
:1042580041F28832934201D90323C9E00B4BD3F8CA
:10426800903003F00203002BEDD01AE0FCF768F958
:1042780038610FE0FCF764F902463B69D31A41F252
:104288008832934206D90323B2E000BF00100240EF
:1042980000700040584BD3F8903003F00203002B15
:1042A800E8D1FB7D012B05D1534A534B9B6D23F07D
:1042B800805393657B689B6A002B00F098804E4B77
:1042C8009B6803F00C030C2B00F08F807B689B6AC3
:1042D800022B56D1484A484B1B6823F08073136061
:1042E800FCF72EF9386108E0FCF72AF902463B6929
:1042F800D31A022B01D903237AE03F4B1B6803F042
:104308000073002BF0D13C497B681B6B013B1A0101
:104318007B685B6B1B021A437B689B6B1B095B0406
:104328001A437B68DB6A1A437B68DB6B5B08013BDB
:104338005B051A437B681B6C5B08013B5B061343F8
:10434800CB602D4A2C4B1B6843F0807313602A4ABC
:10435800294BDB6843F08073D360FCF7F1F83861D0
:1043680008E0FCF7EDF802463B69D31A022B01D9A5
:1043780003233DE0204B1B6803F00073002BF0D0B3
:1043880035E01D4A1C4B1B6823F0807313601A4BE1
:104398001B6803F00063002B0BD1174B1B6803F05D
:1043A8000053002B05D1144A134BDB6823F0030399
:1043B800D360114A104BDB6823F0887323F48033F1
:1043C800D360FCF7BDF8386108E0FCF7B9F802469D
:1043D8003B69D31A022B01D9032309E0064B1B685A
:1043E80003F00073002BF0D101E0012300E000236B
:1043F80018461837BD4680BD0010024080B584B00D
:1044080000AF786039607B68002B01D10123C2E0DE
:10441800634B1B6803F007023B689A4210D260495D
:104428005F4B1B6823F007023B6813430B605C4B30
:104438001B6803F007023B689A4201D00123AAE0F7
:104448007B681B6803F00103002B4CD07B685B681A
:10445800032B07D1534B1B6803F00073002B21D1AA
:10446800012398E07B685B68022B07D14D4B1B68E2
:1044780003F40033002B15D101238CE07B685B68C3
:10448800002B07D1474B1B6803F00203002B09D10F
:10449800012380E0434B1B6803F48063002B01D1A8
:1044A800012378E03F493F4B9B6823F003027B6878
:1044B8005B6813438B60FCF743F8F8600AE0FCF78D
:1044C8003FF80246FB68D31A41F28832934201D979
:1044D800032360E0334B9B6803F00C027B685B6846
:1044E8009B009A42EBD17B681B6803F00203002B08
:1044F80008D02C492B4B9B6823F0F0027B689B6803
:1045080013438B60264B1B6803F007023B689A42F3
:1045180010D92349224B1B6823F007023B68134339
:104528000B601F4B1B6803F007023B689A4201D0DF
:10453800012330E07B681B6803F00403002B08D0DC
:104548001849184B9B6823F4E0627B68DB681343C7
:104558008B607B681B6803F00803002B09D01149A6
:10456800104B9B6823F460527B681B69DB00134384
:104578008B6000F01DF801460A4B9B681B0903F08D
:104588000F03094AD35C21FA03F3084A1360002099
:10459800FBF7ACFF002318461037BD4680BD00BFAF
:1045A8000020024000100240A8A2000820010020BC
:1045B80080B487B000AF00237B6100233B610023F8
:1045C800BB6002237B6002233B600023FB604C4BF3
:1045D8009B6803F00C03002B0BD0494B9B6803F03E
:1045E8000C030C2B27D1464BDB6803F00303012B8C
:1045F80021D1434B1B6803F00803002B07D1404B24
:10460800D3F894301B0A03F00F037B6105E03C4BA1
:104618001B681B0903F00F037B613A4A7B6952F858
:1046280023307B61364B9B6803F00C03002B13D1BE
:104638007B69FB6010E0324B9B6803F00C03042B92
:1046480002D1314BFB6007E02D4B9B6803F00C0354
:10465800082B01D12D4BFB60294B9B6803F00C0301
:104668000C2B45D1264BDB6803F00303BB60244BBE
:10467800DB681B0903F0070301333B60BB68022BAF
:1046880002D0032B0DD019E01F4A3B68B2FBF3F3AD
:104698001B4AD268120A02F07F0202FB03F33B6155
:1046A80019E01A4A3B68B2FBF3F3154AD268120ABA
:1046B80002F07F0202FB03F33B610CE07A693B687E
:1046C800B2FBF3F30E4AD268120A02F07F0202FB31
:1046D80003F33B6100BF0A4BDB685B0E03F0030387
:1046E80001335B007B603A697B68B2FBF3F3FB60E4
:1046F800FB6818461C37BD465DF8047B704700BF51
:1047080000100240C0A200080024F40000366E0128
:1047180080B400AF034B1B681846BD465DF8047BA8
:10472800704700BF2001002080B500AFFFF7F0FF01
:104738000146054B9B681B0A03F00703034AD35C39
:1047480021FA03F3184680BD00100240B8A2000801
:1047580080B500AFFFF7DCFF0146054B9B68DB0A1D
:1047680003F00703034AD35C21FA03F3184680BD1C
:1047780000100240B8A2000880B586B000AF78608B
:1047880000237B6100233B612A4B9B6D03F0805320
:10479800002B03D0FFF758FA786114E0254A254B1F
:1047A8009B6D43F080539365224B9B6D03F08053C0
:1047B800FB60FB68FFF748FA78611E4A1D4B9B6D4A
:1047C80023F0805393657B69B3F5007F0BD17B6839
:1047D800802B19D97B68A02B02D902233B6113E0F7
:1047E80001233B6110E07B68802B02D903233B61E6
:1047F8000AE07B68802B02D102233B6104E07B68DE
:10480800702B01D101233B610B490B4B1B6823F033
:1048180007023B6913430B60074B1B6803F0070251
:104828003B699A4201D0012300E00023184618375B
:10483800BD4680BD001002400020024080B586B011
:1048480000AF786000237B610023FB600023FB74CA
:104858000023BB747B681B6803F40063002B3FD004
:104868007B685B6EB3F5800F1CD0B3F5800F02D860
:10487800002B0ED01FE0B3F5000F03D0B3F5400FA7
:104888001CD018E0824A824BDB6843F48033D36043
:1048980015E07B6804330021184600F0B3FA03469C
:1048A800FB740CE07B6820330021184600F09CFB69
:1048B8000346FB7403E00123FB7400E000BFFB7CAC
:1048C800002B0BD17249724BD3F8883023F4400285
:1048D8007B685B6E1343C1F8883001E0FB7CBB74D6
:1048E8007B681B6803F48053002B3FD07B689B6E6A
:1048F800B3F1807F1CD0B3F1807F02D8002B0ED09B
:104908001FE0B3F1007F03D0B3F1407F1CD018E063
:104918005F4A5F4BDB6843F48033D36015E07B6804
:1049280004330021184600F06DFA0346FB740CE0CE
:104938007B6820330021184600F056FB0346FB74C1
:1049480003E00123FB7400E000BFFB7C002B0BD1CC
:104958004F494F4BD3F8883023F040727B689B6EE9
:104968001343C1F8883001E0FB7CBB747B681B688B
:1049780003F40033002B00F09A8000237B74444B2F
:104988009B6D03F08053002B0DD1414A404B9B6D2A
:1049980043F0805393653E4B9B6D03F08053BB609F
:1049A800BB6801237B743B4A3A4B1B6843F4807312
:1049B8001360FBF7C5FDF86009E0FBF7C1FD02468F
:1049C800FB68D31A022B02D90323FB7405E0314B91
:1049D8001B6803F48073002BEFD0FB7C002B5BD1AA
:1049E8002B4BD3F8903003F440737B617B69002B29
:1049F8001FD07B68D3F884207B699A4219D0244B56
:104A0800D3F8903023F440737B61214A204BD3F8CC
:104A1800903043F48033C2F890301D4A1C4BD3F8D1
:104A2800903023F48033C2F89030194A7B69C2F879
:104A380090307B6903F00103002B16D0FBF780FD53
:104A4800F8600BE0FBF77CFD0246FB68D31A41F2E5
:104A58008832934202D90323FB7406E00C4BD3F847
:104A6800903003F00203002BECD0FB7C002B0CD120
:104A78000749074BD3F8903023F440727B68D3F88A
:104A880084301343C1F8903008E0FB7CBB7405E028
:104A98000010024000700040FB7CBB747B7C012B43
:104AA80005D19E4A9D4B9B6D23F0805393657B688F
:104AB8001B6803F00103002B0AD09849974BD3F8E1
:104AC800883023F003027B689B6B1343C1F888305E
:104AD8007B681B6803F00203002B0AD08F498F4BB9
:104AE800D3F8883023F00C027B68DB6B1343C1F8E2
:104AF80088307B681B6803F00403002B0AD08749C1
:104B0800864BD3F8883023F030027B681B6C134344
:104B1800C1F888307B681B6803F00803002B0AD0B3
:104B28007E497E4BD3F8883023F0C0027B685B6CEB
:104B38001343C1F888307B681B6803F01003002B0F
:104B48000AD07649754BD3F8883023F440727B68D5
:104B58009B6C1343C1F888307B681B6803F0200303
:104B6800002B0AD06D496D4BD3F8883023F440628E
:104B78007B68DB6C1343C1F888307B681B6803F4DF
:104B88000073002B0AD06549644BD3F8883023F4AE
:104B980040227B68DB6D1343C1F888307B681B6853
:104BA80003F48063002B0AD05C495C4BD3F888304F
:104BB80023F440127B681B6E1343C1F888307B686E
:104BC8001B6803F04003002B0AD05449534BD3F819
:104BD800883023F440527B681B6D1343C1F888303A
:104BE8007B681B6803F08003002B0AD04B494B4BB2
:104BF800D3F8883023F440427B685B6D1343C1F8D7
:104C080088307B681B6803F48073002B0AD0434903
:104C1800424BD3F8883023F440327B689B6D1343B2
:104C2800C1F888307B681B6803F40053002B28D038
:104C38003A493A4BD3F8883023F040627B68DB6E00
:104C48001343C1F888307B68DB6EB3F1006F06D17F
:104C5800324A324BDB6843F48013D36011E07B683F
:104C6800DB6EB3F1806F0CD17B68043301211846E9
:104C780000F0C8F80346FB74FB7C002B01D0FB7CDA
:104C8800BB747B681B6803F40023002B28D02349DE
:104C9800224BD3F8883023F040627B681B6F1343A4
:104CA800C1F888307B681B6FB3F1006F06D11B4ACF
:104CB8001A4BDB6843F48013D36011E07B681B6FE9
:104CC800B3F1806F0CD17B6804330121184600F0E2
:104CD80099F80346FB74FB7C002B01D0FB7CBB746A
:104CE8007B681B6803F48023002B2BD00B490B4BEC
:104CF800D3F8883023F040627B685B6F1343C1F8B8
:104D080088307B685B6FB3F1006F09D1034A034BAE
:104D1800DB6843F48013D36014E000BF0010024046
:104D28007B685B6FB3F1806F0CD17B680433012122
:104D3800184600F067F80346FB74FB7C002B01D093
:104D4800FB7CBB747B681B6803F48043002B2FD06B
:104D58002B492B4BD3F8883023F040527B689B6F4C
:104D68001343C1F888307B689B6FB3F1805F0DD126
:104D78007B6804330221184600F044F80346FB74AC
:104D8800FB7C002B14D0FB7CBB7411E07B689B6F11
:104D9800B3F1005F0CD17B6820330221184600F084
:104DA80023F90346FB74FB7C002B01D0FB7CBB740E
:104DB8007B681B6803F40043002B0AD01049104B92
:104DC800D3F8883023F080427B68DB6F1343C1F847
:104DD80088307B681B6803F48033002B0BD00849AC
:104DE800074BD3F8883023F000427B68D3F8803033
:104DF8001343C1F88830BB7C18461837BD4680BDC0
:104E08000010024080B584B000AF7860396000239C
:104E1800BB600023FB73734BDB6803F00303002BB9
:104E280018D0704BDB6803F003027B681B689A425A
:104E38000DD17B681B68002B09D06A4BDB681B0906
:104E480003F007035A1C7B685B689A4244D001232D
:104E5800FB7341E07B681B68022B0CD0032B13D03B
:104E6800012B20D15F4B1B6803F00203002B1DD1DF
:104E78000123FB731AE05B4B1B6803F48063002B70
:104E880016D10123FB7313E0564B1B6803F4003360
:104E9800002B0FD1534B1B6803F48023002B09D13F
:104EA8000123FB7306E00123FB7304E000BF02E06B
:104EB80000BF00E000BFFB7B002B0DD14948494BE8
:104EC800DB6823F073027B6819687B685B68013BC9
:104ED8001B010B431343C360FB7B002B7DD1414A6D
:104EE800404B1B6823F080631360FBF729FBB86015
:104EF80009E0FBF725FB0246BB68D31A022B02D94F
:104F08000323FB7305E0374B1B6803F00063002B9A
:104F1800EFD1FB7B002B60D13B68002B11D13148CE
:104F2800304B1B6923F41F3323F440737A6892686B
:104F380011027A68D268120952040A4313430361C2
:104F480027E03B68012B12D12648264B1B6923F426
:104F5800C00323F4FE437A68926811027A681269E2
:104F68005208013A52050A431343036111E01D48F0
:104F78001C4B1B6923F0C06323F4FE437A689268D4
:104F880011027A6852695208013A52060A431343D9
:104F98000361144A134B1B6843F080631360FBF7EB
:104FA800CFFAB86009E0FBF7CBFA0246BB68D31A20
:104FB800022B02D90323FB7305E00A4B1B6803F09D
:104FC8000063002BEFD0FB7B002B06D10549054B76
:104FD8001A697B689B6913430B61FB7B1846103782
:104FE800BD4680BD0010024080B584B000AF786037
:104FF80039600023BB600023FB73684BDB6803F058
:105008000303002B18D0654BDB6803F003027B68B1
:105018001B689A420DD17B681B68002B09D05F4B37
:10502800DB681B0903F007035A1C7B685B689A421C
:1050380044D00123FB7341E07B681B68022B0CD032
:10504800032B13D0012B20D1544B1B6803F0020310
:10505800002B1DD10123FB731AE0504B1B6803F48E
:105068008063002B16D10123FB7313E04B4B1B68A5
:1050780003F40033002B0FD1484B1B6803F4802343
:10508800002B09D10123FB7306E00123FB7304E025
:1050980000BF02E000BF00E000BFFB7B002B0DD18A
:1050A8003E483E4BDB6823F073027B6819687B68D7
:1050B8005B68013B1B010B431343C360FB7B002B65
:1050C80067D1364A354B1B6823F080531360FBF7D2
:1050D80037FAB86009E0FBF733FA0246BB68D31A1F
:1050E800022B02D90323FB7305E02C4B1B6803F04A
:1050F8000053002BEFD1FB7B002B4AD13B68002BE0
:1051080011D12648254B5B6923F41F3323F44073E0
:105118007A68926811027A68D268120952040A43BE
:105128001343436111E01D481C4B5B6923F0C063C6
:1051380023F4FE437A68926811027A681269520869
:10514800013A52060A4313434361144A134B1B683E
:1051580043F080531360FBF7F3F9B86009E0FBF7FD
:10516800EFF90246BB68D31A022B02D90323FB735B
:1051780005E00A4B1B6803F00053002BEFD0FB7BC4
:10518800002B06D10549054B5A697B685B691343B7
:105198004B61FB7B18461037BD4680BD00100240AE
:1051A80080B584B000AF78607B68002B01D1012303
:1051B8007AE07B6800229A627B6893F85D30DBB204
:1051C800002B06D17B68002283F85C20786803F006
:1051D8005FFF7B68022283F85D207B681B687A6822
:1051E8001268126822F040021A607B68DB68B3F527
:1051F800E06F02D90023FB6002E04FF48053FB60AC
:105208007B68DB68B3F5706F07D07B68DB68B3F544
:10521800E06F02D07B6800229A627B681B6B002BD0
:105228000BD17B68DB68B3F5E06F03D97B6802229A
:105238001A6302E07B6801221A637B681B687A683C
:1052480051687A68926811437A68126911437A68DA
:10525800526911437A68926902F4007211437A68BC
:10526800D26911437A68126A11437A68926A0A43CA
:105278001A607B681B687A689269120C02F0040154
:105288007A68526A11437A68526B11437A68D26815
:105298001143FA680A435A607B6800221A667B68E1
:1052A800012283F85D20002318461037BD4680BDD3
:1052B80080B582B000AF78607B68002B01D10123F4
:1052C80043E07B6893F87130DBB2002B06D17B6832
:1052D800002283F87020786804F058F87B6824224C
:1052E80083F871207B681B687A681268126822F05C
:1052F80001021A60786800F03FF90346012B01D1DA
:10530800012322E07B685B6A002B02D0786800F0FA
:1053180071FC7B681B687A681268526822F49042B4
:105328005A607B681B687A681268926822F02A02C1
:105338009A607B681B687A681268126842F00102FA
:105348001A60786800F0F8FC034618460837BD462E
:1053580080BD000080B584B000AFF860B960134626
:10536800FB80FB6893F87130DBB2202B52D1BB680D
:10537800002B02D0FB88002B01D101234BE0FB68F6
:1053880093F87030012B01D1022344E0FB6801221D
:1053980083F87020FB68BA68DA64FB68FA88A3F8B7
:1053A8005020FB68FA88A3F85220FB6800225A674D
:1053B800FB68212283F87120FB689B6E184ADA6229
:1053C800FB689B6E174A1A63FB689B6E164A5A6302
:1053D800FB689B6E00229A63FB68986EFB68DB6C27
:1053E8001946FB681B6828331A46FB88FCF72CFB18
:1053F800FB681B6840221A62FB68002283F8702051
:10540800FB681B68FA681268926842F080029A602A
:10541800002300E0022318461037BD4680BD00BFB8
:10542800D55E0008295F0008CB5F000880B584B00E
:1054380000AFF860B9601346FB80FB6893F87230E0
:10544800DBB2202B5AD1BB68002B02D0FB88002B83
:1054580001D1012353E0FB6893F87030012B01D18F
:1054680002234CE0FB68012283F87020FB68BA68CD
:105478005A65FB68FA88A3F85820FB6800225A6727
:10548800FB68222283F87220FB68DB6E1E4ADA6210
:10549800FB68DB6E1D4A1A63FB68DB6E1C4A5A63A5
:1054A800FB68DB6E00229A63FB68D86EFB681B689A
:1054B80024331946FB685B6D1A46FB88FCF7C4FA6F
:1054C800FB68002283F87020FB681B68FA68126882
:1054D800126842F480721A60FB681B68FA681268E6
:1054E800926842F001029A60FB681B68FA681268C9
:1054F800926842F040029A60002300E002231846B6
:105508001037BD4680BD00BF455F0008AF5F00088B
:10551800CB5F000880B483B000AF786000BF0C3761
:10552800BD465DF8047B704780B483B000AF7860F7
:1055380000BF0C37BD465DF8047B704780B483B06C
:1055480000AF786000BF0C37BD465DF8047B70473C
:1055580080B483B000AF786000BF0C37BD465DF8FB
:10556800047B704780B483B000AF786000BF0C370D
:10557800BD465DF8047B70472DE9B04388B000AFA5
:1055880078600023FB611023FB7600237B810023D6
:105598007B610023FB740023FB607B689A687B684F
:1055A8001B691A437B685B691A437B68DB69134391
:1055B800FB617B681A687B681B681968AA4B0B40FB
:1055C800F9690B4313607B681B687A681268526834
:1055D80022F440517A68D2680A435A607B689B6912
:1055E800FB617B681B68A14A934204D07B681B6AF5
:1055F800FA691343FB617B681B687A6812689268D2
:1056080022F43061FA690A439A607B681B68984AF9
:10561800934221D1974BD3F8883003F00303032B2F
:1056280016D801A252F823F0415600084D5600083A
:1056380047560008535600080123FB76E4E002238E
:10564800FB76E1E00423FB76DEE00823FB76DBE073
:105658001023FB7600BFD7E07B681B68864A93421D
:1056680034D1844BD3F8883003F00C030C2B29D8A1
:1056780001A252F823F000BFB5560008CD56000825
:10568800CD560008CD560008C1560008CD56000872
:10569800CD560008CD560008BB560008CD56000868
:1056A800CD560008CD560008C75600080023FB76E3
:1056B800AAE00223FB76A7E00423FB76A4E00823F4
:1056C800FB76A1E01023FB7600BF9DE07B681B689A
:1056D8006A4A934220D1674BD3F8883003F03003ED
:1056E800102B0FD0102B02D8002B05D010E0202B48
:1056F80005D0302B09D00BE00023FB7684E0022391
:10570800FB7681E00423FB767EE00823FB767BE0D2
:105718001023FB7600BF77E07B681B68584A9342EA
:1057280020D1544BD3F8883003F0C003402B0FD05E
:10573800402B02D8002B05D010E0802B05D0C02BC1
:1057480009D00BE00023FB765EE00223FB765BE0EA
:105758000423FB7658E00823FB7655E01023FB76FC
:1057680000BF51E07B681B68464A934224D1414BF5
:10577800D3F8883003F44073B3F5807F12D0B3F5C3
:10578800807F02D8002B07D012E0B3F5007F06D047
:10579800B3F5407F09D00BE00023FB7634E0022309
:1057A800FB7631E00423FB762EE00823FB762BE022
:1057B8001023FB7600BF27E07B681B682B4A9342C7
:1057C80023D12C4BD3F8883003F44063B3F5806FB2
:1057D80012D0B3F5806F02D8002B07D012E0B3F5D2
:1057E800006F06D0B3F5406F09D00BE00023FB76BD
:1057F8000AE00223FB7607E00423FB7604E0082393
:10580800FB7601E01023FB7600BF7B681B68174A14
:10581800934240F0EE80FB7E082B37D801A252F865
:1058280023F000BF5158000895580008595800083F
:10583800955800085F5800089558000895580008C2
:105848009558000867580008FEF76EFFF86020E0DA
:105858000D4BFB601DE0FEF7ABFEF86019E04FF45E
:105868000043FB6015E000BFF369FFEF00800040D4
:105878000038014000100240004400400048004049
:10588800004C0040005000400024F4000123FB7449
:1058980000BFFB68002B00F09E817B685A681346A6
:1058A8005B001A44FB689A4205D87B685B681A0358
:1058B800FB689A4202D20123FB748CE1FB7E082B21
:1058C80000F2848001A252F823F000BFF9580008C2
:1058D800D559000839590008D55900086D590008EC
:1058E800D5590008D5590008D5590008AB59000802
:1058F800FEF71AFF03464FF000044FEA042949EA6D
:1059080013694FEA03287B685B685B084FF0000463
:1059180018EB030049EB04017B685B684FF0000457
:105928001A462346FAF74CFC03460C467B6150E0C6
:105938007B685B685B084FF00004AD494FF00002DC
:1059480013EB010844EB0209404649467B685B6853
:105958004FF000041A462346FAF732FC03460C4679
:105968007B6136E0FEF724FE03461A464FF000033B
:105978001D0245EA126514027B685B685B081A46DB
:105988004FF00003A01845EB03017B685B684FF0FC
:1059980000041A462346FAF713FC03460C467B61BB
:1059A80017E07B685B685B084FF0000413F50000A4
:1059B80044F100017B685B684FF000041A462346F7
:1059C800FAF7FEFB03460C467B6102E00123FB74F9
:1059D80000BF7B69B3F5407F08D37B69B3F5801FAF
:1059E80004D27B681B687A69DA60F4E00123FB74EF
:1059F800F1E07B68DB69B3F5004F7ED1FB7E082BB5
:105A08005BD801A252F823F0355A0008535A00080F
:105A1800715A0008C35A00088D5A0008C35A000872
:105A2800C35A0008C35A0008AB5A0008FEF77CFEA8
:105A380003465A007B685B685B081A447B685B68AE
:105A4800B2FBF3F39BB27B613AE0FEF781FE0346BB
:105A58005A007B685B685B081A447B685B68B2FB2A
:105A6800F3F39BB27B612BE07B685B685B0803F117
:105A7800F47303F590437A685268B3FBF2F39BB270
:105A88007B611DE0FEF794FD03465A007B685B6866
:105A98005B081A447B685B68B2FBF3F39BB27B61DB
:105AA8000EE07B685B685B0803F580327B685B68A7
:105AB800B2FBF3F39BB27B6102E00123FB7400BFEE
:105AC8007B690F2B16D97B69B3F5803F12D27B69AE
